:020000040000FA
:08000000803102288731E42F52
:1006B800083450018C01080083319B2383314301A6
:1006C8001114080083319B2383314301111508005D
:1006D80051019101023093009201080064008001E9
:1006E8000131890B732B0034FE0012001E00FE0B33
:1006F800792B003443018F010830900091010930B3
:100708008D009012080001308331E72383310D30CA
:10071800890B8C2B000008002830430190009101C0
:100728008F0109308D00400113171316080043018B
:100738000F199F2BA02B9B2B11081F39031DA52BCD
:10074800A62B9B2B080083317E23833184318E2492
:10075800833183316C23833183315D2383310800F6
:10076800F00083319B238331700843018C004E01D4
:100778008D1CBF2BC02BBB2B8D100800F1008331C3
:10078800602383317B088331B423833171087D046E
:100798008331B42383318331662383310800F30026
:1007A8007C08F2007208F304730804388331C2230A
:1007B80083317308FB398331C22383311030890BAD
:1007C800E32B00320800F500FC017508F03983318D
:1007D800D32383317508F4000330F435FF3E031D3D
:1007E800F12B7435F0398331D323833108007C34FD
:1007F80088347C3488347C3488347C3488347C3441
:1008080088347E3488348034883482348834803420
:1008180088347E348834F500FC01FC0A7508F03908
:100828008331D32384317508F4000330F435FF3E57
:10083800031D1A2C7435F0398331D3238431080011
:10084800F901FA01352C76087907840077087A3D92
:100858008500000884310F2484310130F907003005
:10086800FA3D76087907840077087A3D85001200FA
:10087800031D3F2C402C272C08008331A7238431EB
:100888008331902384314E308431BE248431F60183
:10089800F60A01308431602484316A30F6008830E9
:1008A800F70084312424843140011A13853130251E
:1008B80084315A2C80310228F9007A2C7608BF3E00
:1008C8008331E72384318D2C7608933E8331E723E7
:1008D80084318D2C7608D33E8331E72384318D2CE7
:1008E80076087F3E8331E72384318D2C7908F70021
:1008F800F8017808003A0319822C742C7708023A18
:100908000319622C013A0319682C073A03196E2C53
:10091800742C08004001980199019A013F30920017
:10092800F0309300BF3094008C307E01CE00A030B0
:10093800C3003730B800C401B9011030CF00BA0184
:10094800C501D0013730BB00F030C600FF30D10000
:100958003F30BC00F030C700FF30D2000E307D01C0
:10096800C50007307E019E0008309C000C307D01D8
:10097800C6000800F7007708F6007608FB0000308C
:100988008331C22384312730F600F530890BCA2C15
:10099800F60BCA2C000003308331E723843107307B
:1009A800F6007D30890BD62CF60BD62C00000330D0
:1009B8008331E72384310730F6007D30890BE22C40
:1009C800F60BE22C000003308331E7238431073033
:1009D800F6007D30890BEE2CF60BEE2C0000023071
:1009E8008331E72384310730F6007D30890BFA2CF8
:1009F800F60BFA2C000028308331E723843141308C
:100A0800F600EE30890B062DF60B062D00320C3061
:100A18008331E72384314130F600EE30890B122D03
:100A2800F60B122D003201308331E7238431413037
:100A3800F600EE30890B1E2DF60B1E2D0032063007
:100A48008331E72384314130F600EE30890B2A2DBB
:100A5800F60B2A2D00320800CF2F0E18342D352D15
:100A68004F2D02304001DA004530D900A930890BFA
:100A78003B2DD90B3B2DDA0B3B2D00324001433582
:100A8800453E860087017E30C03F8830C13F013037
:100A9800C3070030C43D8E18522D532D6D2D0230E2
:100AA8004001DA004530D900A930890B592DD90BFE
:100AB800592DDA0B592D003240014335453E860049
:100AC80087018030C03F8830C13F0130C307003004
:100AD800C43D8E1A702D712D8B2D02304001DA0025
:100AE8004530D900A930890B772DD90B772DDA0B32
:100AF800772D003240014335453E8600870182301C
:100B0800C03F8830C13F0130C3070030C43D0530C5
:100B180043064404031D912D922DE32FC301C40104
:100B28000130C1000030C200E32FDD01DE014001C9
:100B38005D35453E86008701403FD900413FDA00D8
:100B48005D354F3E86008701403FDB00413FDC00BA
:100B58005A085C06031DB22D59085B06031DB52D06
:100B6800B62DBB2D0130C3070030C43DBE2DC301D7
:100B7800C401CF2D0130DD070030DE3D5E08803A2C
:100B8800D90080305902031DCB2D05305D02031CAE
:100B9800CE2DCF2D9B2D0530400143064404031D67
:100BA800D62DD72D1D2EF601F60A03308431602488
:100BB80085314530F6008830F700843124248531AA
:100BC8007C304001C5008830C6007C30C7008830C2
:100BD800C8007C30C9008830CA007C30CB0088301F
:100BE800CC000B304001DA002630D9005D30890B8B
:100BF800FB2DD90BFB2DDA0BFB2D0032833187231C
:100C080085314001C301C401BF01C001F601F60AE4
:100C180001308431602485315330F6008830F70084
:100C280084312424853102304001C1000030C200E3
:100C3800E32FF601F60A033084316024853135301C
:100C4800F6008830F7008431242485317C30400157
:100C5800C5008830C6007C30C7008830C8007C30AA
:100C6800C9008830CA007C30CB008830CC00013005
:100C7800BF070030C03DC301C4010B304001DA009A
:100C88002630D9005D30890B472ED90B472EDA0B59
:100C9800472E0032833187238531023040013F06D9
:100CA8004004031D582E592E692EF601F60A03300A
:100CB8008431602485312030F6008830F700843193
:100CC8002424853140011A17592EF601F60A0130FD
:100CD8008431602485316A30F6008830F700843129
:100CE800242485314001C101C201E32F0E1E7D2E4F
:100CF8007E2E8D2EF601F60A02308431602485316D
:100D08007430F6008830F70084312424853140019E
:100D18001A170E18902E912EAB2E02304001DA00D1
:100D28004530D900A930890B972ED90B972EDA0BAD
:100D3800972E003240014335453E860087017E30BC
:100D4800C03F8830C13F0130C3070030C43D8E1812
:100D5800AE2EAF2EC92E02304001DA004530D90040
:100D6800A930890BB52ED90BB52EDA0BB52E00326A
:100D780040014335453E860087018030C03F8830BA
:100D8800C13F0130C3070030C43D8E1ACC2ECD2E92
:100D9800E72E02304001DA004530D900A930890B2E
:100DA800D32ED90BD32EDA0BD32E00324001433584
:100DB800453E860087018230C03F8830C13F013000
:100DC800C3070030C43D053043064404031DED2E1F
:100DD800EE2EE32FC301C4010330C1000030C2006E
:100DE800E32FDF01E00140015F35453E86008701C2
:100DF800403FD900413FDA005F354F3E860087010A
:100E0800403FDB00413FDC005A085C06031D0E2F03
:100E180059085B06031D112F122F172F0130C30726
:100E28000030C43D1A2FC301C4012B2F0130DF0746
:100E38000030E03D6008803AD90080305902031D37
:100E4800272F05305F02031C2A2F2B2FF72E053082
:100E5800400143064404031D322F332F752FF6013A
:100E6800F60A03308431602485314530F600883035
:100E7800F7008431242485317C304001C500883056
:100E8800C6007C30C7008830C8007C30C900883074
:100E9800CA007C30CB008830CC001A130B304001DC
:100EA800DA002630D9005D30890B582FD90B582F1E
:100EB800DA0B582F00328331872385314001C30173
:100EC800C401BF01C001F601F60A01308431602473
:100ED80085315F30F6008830F7008431242485316D
:100EE800762EF601F60A03308431602485313530D8
:100EF800F6008830F7008431242485317C304001A5
:100F0800C5008830C6007C30C7008830C8007C30F7
:100F1800C9008830CA007C30CB008830CC00013052
:100F2800BF070030C03DC301C4010B304001DA00E7
:100F38002630D9005D30890B9F2FD90B9F2FDA0BF4
:100F48009F2F0032833187238531023040013F06CD
:100F58004004031DB02FB12FC12FF601F60A03304C
:100F68008431602485312030F6008830F7008431E0
:100F78002424853140011A17B12FF601F60A0130F1
:100F88008431602485316A30F6008830F700843176
:100F980024248531172E40014208003A0319D52F21
:100FA800E32F4108003A0319312D013A0319992D0D
:100FB800033A03197A2E013A0319F52EE32F080094
:100FC80083315C238731FD00FB308400833085004A
:100FD800453086000030870014308331782387310C
:100FE800FC012030840000308500253083317223D5
:100FF800873140018431412C0034003400340034FE
:101008000034003400340034003400340034003438
:101018000034003400340034003400340034003428
:101028000034003400340034003400340034003418
:10103800003400340034003442346C346F3471347A
:10104800753465346F342034643465342034733433
:1010580065346734753472346934643461346434A3
:10106800003443346F346E347434203469346E344D
:1010780063346F3472347234653463347434613475
:10108800003443346F346E347434203463346F3432
:1010980072347234653463347434613400345334D4
:1010A80065346E34733461346E3464346F342E3482
:1010B8002E342E34003443346F346E347434723426
:1010C8006134733465346E346134003443346F34BE
:1010D800743472346134733465346E34613400347A
:1010E80049346E3474347234753473346F34003464
:1010F8003034003431340034323400343334003482
:020000040001F9
:04000E00ED3FE73F9C
:04001400FF3FFF3F6C
:00000001FF
